{
  "address": "0xdA2F37Ac5DA4BAEAc574d0c64aA0E85b3675de1A",
  "abi": [
    {
      "inputs": [
        {
          "internalType": "contract IERC20",
          "name": "_stablecoin",
          "type": "address"
        },
        {
          "internalType": "contract IERC20",
          "name": "_streamCoin",
          "type": "address"
        },
        {
          "internalType": "contract IERC20",
          "name": "_asset",
          "type": "address"
        },
        {
          "internalType": "contract IERC20",
          "name": "_boardwalkToken",
          "type": "address"
        },
        {
          "internalType": "contract IUniswapV2Router02",
          "name": "_dex",
          "type": "address"
        },
        {
          "internalType": "contract ISwaps",
          "name": "_swaps",
          "type": "address"
        }
      ],
      "stateMutability": "nonpayable",
      "type": "constructor"
    },
    {
      "anonymous": false,
      "inputs": [
        {
          "indexed": true,
          "internalType": "address",
          "name": "owner",
          "type": "address"
        },
        {
          "indexed": true,
          "internalType": "address",
          "name": "spender",
          "type": "address"
        },
        {
          "indexed": false,
          "internalType": "uint256",
          "name": "value",
          "type": "uint256"
        }
      ],
      "name": "Approval",
      "type": "event"
    },
    {
      "anonymous": false,
      "inputs": [
        {
          "indexed": true,
          "internalType": "address",
          "name": "from",
          "type": "address"
        },
        {
          "indexed": true,
          "internalType": "address",
          "name": "to",
          "type": "address"
        },
        {
          "indexed": false,
          "internalType": "uint256",
          "name": "value",
          "type": "uint256"
        }
      ],
      "name": "Transfer",
      "type": "event"
    },
    {
      "inputs": [
        {
          "internalType": "address",
          "name": "owner",
          "type": "address"
        },
        {
          "internalType": "address",
          "name": "spender",
          "type": "address"
        }
      ],
      "name": "allowance",
      "outputs": [
        {
          "internalType": "uint256",
          "name": "",
          "type": "uint256"
        }
      ],
      "stateMutability": "view",
      "type": "function"
    },
    {
      "inputs": [
        {
          "internalType": "address",
          "name": "spender",
          "type": "address"
        },
        {
          "internalType": "uint256",
          "name": "amount",
          "type": "uint256"
        }
      ],
      "name": "approve",
      "outputs": [
        {
          "internalType": "bool",
          "name": "",
          "type": "bool"
        }
      ],
      "stateMutability": "nonpayable",
      "type": "function"
    },
    {
      "inputs": [],
      "name": "asset",
      "outputs": [
        {
          "internalType": "contract IERC20",
          "name": "",
          "type": "address"
        }
      ],
      "stateMutability": "view",
      "type": "function"
    },
    {
      "inputs": [
        {
          "internalType": "address",
          "name": "",
          "type": "address"
        }
      ],
      "name": "availableCollateral",
      "outputs": [
        {
          "internalType": "uint256",
          "name": "",
          "type": "uint256"
        }
      ],
      "stateMutability": "view",
      "type": "function"
    },
    {
      "inputs": [
        {
          "internalType": "address",
          "name": "account",
          "type": "address"
        }
      ],
      "name": "balanceOf",
      "outputs": [
        {
          "internalType": "uint256",
          "name": "",
          "type": "uint256"
        }
      ],
      "stateMutability": "view",
      "type": "function"
    },
    {
      "inputs": [],
      "name": "boardwalkToken",
      "outputs": [
        {
          "internalType": "contract IERC20",
          "name": "",
          "type": "address"
        }
      ],
      "stateMutability": "view",
      "type": "function"
    },
    {
      "inputs": [
        {
          "internalType": "uint256",
          "name": "amountCash",
          "type": "uint256"
        }
      ],
      "name": "buySwap",
      "outputs": [],
      "stateMutability": "nonpayable",
      "type": "function"
    },
    {
      "inputs": [],
      "name": "decimals",
      "outputs": [
        {
          "internalType": "uint8",
          "name": "",
          "type": "uint8"
        }
      ],
      "stateMutability": "view",
      "type": "function"
    },
    {
      "inputs": [
        {
          "internalType": "address",
          "name": "spender",
          "type": "address"
        },
        {
          "internalType": "uint256",
          "name": "subtractedValue",
          "type": "uint256"
        }
      ],
      "name": "decreaseAllowance",
      "outputs": [
        {
          "internalType": "bool",
          "name": "",
          "type": "bool"
        }
      ],
      "stateMutability": "nonpayable",
      "type": "function"
    },
    {
      "inputs": [
        {
          "internalType": "uint256",
          "name": "amount",
          "type": "uint256"
        }
      ],
      "name": "deposit",
      "outputs": [],
      "stateMutability": "nonpayable",
      "type": "function"
    },
    {
      "inputs": [
        {
          "internalType": "uint256",
          "name": "amount",
          "type": "uint256"
        }
      ],
      "name": "depositCollateral",
      "outputs": [],
      "stateMutability": "nonpayable",
      "type": "function"
    },
    {
      "inputs": [],
      "name": "dex",
      "outputs": [
        {
          "internalType": "contract IUniswapV2Router02",
          "name": "",
          "type": "address"
        }
      ],
      "stateMutability": "view",
      "type": "function"
    },
    {
      "inputs": [],
      "name": "getAPY",
      "outputs": [
        {
          "internalType": "uint256",
          "name": "",
          "type": "uint256"
        }
      ],
      "stateMutability": "view",
      "type": "function"
    },
    {
      "inputs": [],
      "name": "getAssetsFunds",
      "outputs": [
        {
          "internalType": "uint256",
          "name": "",
          "type": "uint256"
        }
      ],
      "stateMutability": "view",
      "type": "function"
    },
    {
      "inputs": [],
      "name": "getCashFunds",
      "outputs": [
        {
          "internalType": "uint256",
          "name": "",
          "type": "uint256"
        }
      ],
      "stateMutability": "view",
      "type": "function"
    },
    {
      "inputs": [],
      "name": "getCollateralFunds",
      "outputs": [
        {
          "internalType": "uint256",
          "name": "",
          "type": "uint256"
        }
      ],
      "stateMutability": "view",
      "type": "function"
    },
    {
      "inputs": [],
      "name": "getStreamFunds",
      "outputs": [
        {
          "internalType": "uint256",
          "name": "",
          "type": "uint256"
        }
      ],
      "stateMutability": "view",
      "type": "function"
    },
    {
      "inputs": [
        {
          "internalType": "address",
          "name": "spender",
          "type": "address"
        },
        {
          "internalType": "uint256",
          "name": "addedValue",
          "type": "uint256"
        }
      ],
      "name": "increaseAllowance",
      "outputs": [
        {
          "internalType": "bool",
          "name": "",
          "type": "bool"
        }
      ],
      "stateMutability": "nonpayable",
      "type": "function"
    },
    {
      "inputs": [],
      "name": "name",
      "outputs": [
        {
          "internalType": "string",
          "name": "",
          "type": "string"
        }
      ],
      "stateMutability": "view",
      "type": "function"
    },
    {
      "inputs": [
        {
          "internalType": "uint256",
          "name": "underlyingAmount",
          "type": "uint256"
        },
        {
          "internalType": "uint256",
          "name": "startingStablePrice",
          "type": "uint256"
        },
        {
          "internalType": "address",
          "name": "payer",
          "type": "address"
        }
      ],
      "name": "settle",
      "outputs": [],
      "stateMutability": "nonpayable",
      "type": "function"
    },
    {
      "inputs": [],
      "name": "stablecoin",
      "outputs": [
        {
          "internalType": "contract IERC20",
          "name": "",
          "type": "address"
        }
      ],
      "stateMutability": "view",
      "type": "function"
    },
    {
      "inputs": [],
      "name": "streamCoin",
      "outputs": [
        {
          "internalType": "contract IERC20",
          "name": "",
          "type": "address"
        }
      ],
      "stateMutability": "view",
      "type": "function"
    },
    {
      "inputs": [],
      "name": "swaps",
      "outputs": [
        {
          "internalType": "contract ISwaps",
          "name": "",
          "type": "address"
        }
      ],
      "stateMutability": "view",
      "type": "function"
    },
    {
      "inputs": [],
      "name": "symbol",
      "outputs": [
        {
          "internalType": "string",
          "name": "",
          "type": "string"
        }
      ],
      "stateMutability": "view",
      "type": "function"
    },
    {
      "inputs": [],
      "name": "totalSupply",
      "outputs": [
        {
          "internalType": "uint256",
          "name": "",
          "type": "uint256"
        }
      ],
      "stateMutability": "view",
      "type": "function"
    },
    {
      "inputs": [
        {
          "internalType": "address",
          "name": "to",
          "type": "address"
        },
        {
          "internalType": "uint256",
          "name": "amount",
          "type": "uint256"
        }
      ],
      "name": "transfer",
      "outputs": [
        {
          "internalType": "bool",
          "name": "",
          "type": "bool"
        }
      ],
      "stateMutability": "nonpayable",
      "type": "function"
    },
    {
      "inputs": [
        {
          "internalType": "address",
          "name": "from",
          "type": "address"
        },
        {
          "internalType": "address",
          "name": "to",
          "type": "address"
        },
        {
          "internalType": "uint256",
          "name": "amount",
          "type": "uint256"
        }
      ],
      "name": "transferFrom",
      "outputs": [
        {
          "internalType": "bool",
          "name": "",
          "type": "bool"
        }
      ],
      "stateMutability": "nonpayable",
      "type": "function"
    },
    {
      "inputs": [
        {
          "internalType": "uint256",
          "name": "_amount",
          "type": "uint256"
        }
      ],
      "name": "withdrawal",
      "outputs": [],
      "stateMutability": "nonpayable",
      "type": "function"
    }
  ],
  "transactionHash": "0x3b6c36cfb3fd149aad612d1cd9cf5c6dd35ac1fbbcd3af03669b16a801ac67e4",
  "args": [
    "0x42DCAA257a35e875D6D6B7401a85094cf40897Ea",
    "0xE5d5613B7Dc241Eaf6E8F6ec518e8A9DC82D5131",
    "0x700FF7B56546eF9239650E2B97cC7276E33dDD16",
    "0x3c1339DA839900A7fBa612A934560dE4d82fE405",
    "0x7a250d5630B4cF539739dF2C5dAcb4c659F2488D",
    "0xcd347d38e4f8D197c02773984b188f298acB32F2"
  ],
  "numDeployments": 2,
  "solcInputHash": "e7d502e8048a020e0285085c81e8ce04",
  "bytecode": "0x60806040523480156200001157600080fd5b506040516200469f3803806200469f833981810160405281019062000037919062000781565b6040518060400160405280600f81526020017f455448205377617020436f75706f6e00000000000000000000000000000000008152506040518060400160405280600981526020017f424f5244736345544800000000000000000000000000000000000000000000008152508160039080519060200190620000bb92919062000649565b508060049080519060200190620000d492919062000649565b50505085600560006101000a81548173ffffffffffffffffffffffffffffffffffffffff021916908373ffffffffffffffffffffffffffffffffffffffff16021790555084600660006101000a81548173ffffffffffffffffffffffffffffffffffffffff021916908373ffffffffffffffffffffffffffffffffffffffff16021790555083600760006101000a81548173ffffffffffffffffffffffffffffffffffffffff021916908373ffffffffffffffffffffffffffffffffffffffff16021790555082600860006101000a81548173ffffffffffffffffffffffffffffffffffffffff021916908373ffffffffffffffffffffffffffffffffffffffff16021790555081600960006101000a81548173ffffffffffffffffffffffffffffffffffffffff021916908373ffffffffffffffffffffffffffffffffffffffff16021790555080600a60006101000a81548173ffffffffffffffffffffffffffffffffffffffff021916908373ffffffffffffffffffffffffffffffffffffffff160217905550600560009054906101000a900473ffffffffffffffffffffffffffffffffffffffff1673ffffffffffffffffffffffffffffffffffffffff1663095ea7b3600960009054906101000a900473ffffffffffffffffffffffffffffffffffffffff167fffffffffffffffffffffffffffffffffffffffffffffffffffffffffffffffff6040518363ffffffff1660e01b8152600401620002fe92919062000839565b602060405180830381600087803b1580156200031957600080fd5b505af11580156200032e573d6000803e3d6000fd5b505050506040513d601f19601f8201168201806040525081019062000354919062000755565b50600660009054906101000a900473ffffffffffffffffffffffffffffffffffffffff1673ffffffffffffffffffffffffffffffffffffffff1663095ea7b3600960009054906101000a900473ffffffffffffffffffffffffffffffffffffffff167fffffffffffffffffffffffffffffffffffffffffffffffffffffffffffffffff6040518363ffffffff1660e01b8152600401620003f692919062000839565b602060405180830381600087803b1580156200041157600080fd5b505af115801562000426573d6000803e3d6000fd5b505050506040513d601f19601f820116820180604052508101906200044c919062000755565b50600760009054906101000a900473ffffffffffffffffffffffffffffffffffffffff1673ffffffffffffffffffffffffffffffffffffffff1663095ea7b3600960009054906101000a900473ffffffffffffffffffffffffffffffffffffffff167fffffffffffffffffffffffffffffffffffffffffffffffffffffffffffffffff6040518363ffffffff1660e01b8152600401620004ee92919062000839565b602060405180830381600087803b1580156200050957600080fd5b505af11580156200051e573d6000803e3d6000fd5b505050506040513d601f19601f8201168201806040525081019062000544919062000755565b50600860009054906101000a900473ffffffffffffffffffffffffffffffffffffffff1673ffffffffffffffffffffffffffffffffffffffff1663095ea7b3600960009054906101000a900473ffffffffffffffffffffffffffffffffffffffff167fffffffffffffffffffffffffffffffffffffffffffffffffffffffffffffffff6040518363ffffffff1660e01b8152600401620005e692919062000839565b602060405180830381600087803b1580156200060157600080fd5b505af115801562000616573d6000803e3d6000fd5b505050506040513d601f19601f820116820180604052508101906200063c919062000755565b50505050505050620009cd565b828054620006579062000900565b90600052602060002090601f0160209004810192826200067b5760008555620006c7565b82601f106200069657805160ff1916838001178555620006c7565b82800160010185558215620006c7579182015b82811115620006c6578251825591602001919060010190620006a9565b5b509050620006d69190620006da565b5090565b5b80821115620006f5576000816000905550600101620006db565b5090565b6000815190506200070a8162000965565b92915050565b60008151905062000721816200097f565b92915050565b600081519050620007388162000999565b92915050565b6000815190506200074f81620009b3565b92915050565b6000602082840312156200076857600080fd5b60006200077884828501620006f9565b91505092915050565b60008060008060008060c087890312156200079b57600080fd5b6000620007ab89828a0162000710565b9650506020620007be89828a0162000710565b9550506040620007d189828a0162000710565b9450506060620007e489828a0162000710565b9350506080620007f789828a016200073e565b92505060a06200080a89828a0162000727565b9150509295509295509295565b620008228162000866565b82525050565b6200083381620008ec565b82525050565b600060408201905062000850600083018562000817565b6200085f602083018462000828565b9392505050565b60006200087382620008c2565b9050919050565b60008115159050919050565b6000620008938262000866565b9050919050565b6000620008a78262000866565b9050919050565b6000620008bb8262000866565b9050919050565b600073ffffffffffffffffffffffffffffffffffffffff82169050919050565b6000819050919050565b6000620008f982620008e2565b9050919050565b600060028204905060018216806200091957607f821691505b6020821081141562000930576200092f62000936565b5b50919050565b7f4e487b7100000000000000000000000000000000000000000000000000000000600052602260045260246000fd5b62000970816200087a565b81146200097c57600080fd5b50565b6200098a8162000886565b81146200099657600080fd5b50565b620009a4816200089a565b8114620009b057600080fd5b50565b620009be81620008ae565b8114620009ca57600080fd5b50565b613cc280620009dd6000396000f3fe608060405234801561001057600080fd5b50600436106101c35760003560e01c806370a08231116100f9578063b7de36fe11610097578063d2cbf7ad11610071578063d2cbf7ad146104fa578063d529acd614610518578063dd62ed3e14610548578063e9cbd82214610578576101c3565b8063b7de36fe146104a2578063b9a6ed2d146104c0578063bad4a01f146104de576101c3565b806395d89b41116100d357806395d89b4114610408578063a457c2d714610426578063a9059cbb14610456578063b6b55f2514610486576101c3565b806370a08231146103a0578063835fc6ca146103d05780639583f0f2146103ec576101c3565b8063313ce567116101665780633cfaad45116101405780633cfaad45146103285780634c984185146103465780635161735614610364578063692058c214610382576101c3565b8063313ce567146102bc57806338d52e0f146102da57806339509351146102f8576101c3565b806311071a0c116101a257806311071a0c1461023257806318160ddd1461025057806323b872dd1461026e578063250f4af21461029e576101c3565b8062353ceb146101c857806306fdde03146101e4578063095ea7b314610202575b600080fd5b6101e260048036038101906101dd9190612e4a565b610596565b005b6101ec610b02565b6040516101f9919061329e565b60405180910390f35b61021c60048036038101906102179190612d52565b610b94565b6040516102299190613232565b60405180910390f35b61023a610bb7565b604051610247919061324d565b60405180910390f35b610258610bdd565b6040516102659190613440565b60405180910390f35b61028860048036038101906102839190612d03565b610be7565b6040516102959190613232565b60405180910390f35b6102a6610c16565b6040516102b3919061324d565b60405180910390f35b6102c4610c3c565b6040516102d191906134e5565b60405180910390f35b6102e2610c45565b6040516102ef919061324d565b60405180910390f35b610312600480360381019061030d9190612d52565b610c6b565b60405161031f9190613232565b60405180910390f35b610330610ca2565b60405161033d9190613440565b60405180910390f35b61034e610d54565b60405161035b9190613268565b60405180910390f35b61036c610d7a565b6040516103799190613440565b60405180910390f35b61038a610e2c565b6040516103979190613283565b60405180910390f35b6103ba60048036038101906103b59190612c9e565b610e52565b6040516103c79190613440565b60405180910390f35b6103ea60048036038101906103e59190612df8565b610e9a565b005b61040660048036038101906104019190612df8565b61104e565b005b610410611541565b60405161041d919061329e565b60405180910390f35b610440600480360381019061043b9190612d52565b6115d3565b60405161044d9190613232565b60405180910390f35b610470600480360381019061046b9190612d52565b61164a565b60405161047d9190613232565b60405180910390f35b6104a0600480360381019061049b9190612df8565b61166d565b005b6104aa61172c565b6040516104b79190613440565b60405180910390f35b6104c86117de565b6040516104d59190613440565b60405180910390f35b6104f860048036038101906104f39190612df8565b611890565b005b61050261199b565b60405161050f9190613440565b60405180910390f35b610532600480360381019061052d9190612c9e565b6119a4565b60405161053f9190613440565b60405180910390f35b610562600480360381019061055d9190612cc7565b6119bc565b60405161056f9190613440565b60405180910390f35b610580611a43565b60405161058d919061324d565b60405180910390f35b60006105b9606484600a6105aa919061362d565b6105b491906135fc565b611a69565b905080600b60003373ffffffffffffffffffffffffffffffffffffffff1673ffffffffffffffffffffffffffffffffffffffff168152602001908152602001600020600082825461060a91906135a6565b925050819055506000600267ffffffffffffffff811115610654577f4e487b7100000000000000000000000000000000000000000000000000000000600052604160045260246000fd5b6040519080825280602002602001820160405280156106825781602001602082028036833780820191505090505b509050600760009054906101000a900473ffffffffffffffffffffffffffffffffffffffff16816000815181106106e2577f4e487b7100000000000000000000000000000000000000000000000000000000600052603260045260246000fd5b602002602001019073ffffffffffffffffffffffffffffffffffffffff16908173ffffffffffffffffffffffffffffffffffffffff1681525050600560009054906101000a900473ffffffffffffffffffffffffffffffffffffffff1681600181518110610779577f4e487b7100000000000000000000000000000000000000000000000000000000600052603260045260246000fd5b602002602001019073ffffffffffffffffffffffffffffffffffffffff16908173ffffffffffffffffffffffffffffffffffffffff16815250506000600960009054906101000a900473ffffffffffffffffffffffffffffffffffffffff1673ffffffffffffffffffffffffffffffffffffffff166338ed1739876107fe8986611d0d565b8530601e4261080d91906135a6565b6040518663ffffffff1660e01b815260040161082d95949392919061348b565b600060405180830381600087803b15801561084757600080fd5b505af115801561085b573d6000803e3d6000fd5b505050506040513d6000823e3d601f19601f820116820180604052508101906108849190612d8e565b905084816001815181106108c1577f4e487b7100000000000000000000000000000000000000000000000000000000600052603260045260246000fd5b602002602001015111156109d057600560009054906101000a900473ffffffffffffffffffffffffffffffffffffffff1673ffffffffffffffffffffffffffffffffffffffff1663a9059cbb858784600181518110610949577f4e487b7100000000000000000000000000000000000000000000000000000000600052603260045260246000fd5b602002602001015161095b9190613687565b6040518363ffffffff1660e01b8152600401610978929190613209565b602060405180830381600087803b15801561099257600080fd5b505af11580156109a6573d6000803e3d6000fd5b505050506040513d601f19601f820116820180604052508101906109ca9190612dcf565b50610afa565b6000610a3d600860009054906101000a900473ffffffffffffffffffffffffffffffffffffffff16600b60003373ffffffffffffffffffffffffffffffffffffffff1673ffffffffffffffffffffffffffffffffffffffff16815260200190815260200160002054611e3f565b905081600181518110610a79577f4e487b7100000000000000000000000000000000000000000000000000000000600052603260045260246000fd5b602002602001015186610a8c9190613687565b8110610aed57610ae83383600181518110610ad0577f4e487b7100000000000000000000000000000000000000000000000000000000600052603260045260246000fd5b602002602001015188610ae39190613687565b6120c2565b610af8565b610af733826120c2565b5b505b505050505050565b606060038054610b11906137af565b80601f0160208091040260200160405190810160405280929190818152602001828054610b3d906137af565b8015610b8a5780601f10610b5f57610100808354040283529160200191610b8a565b820191906000526020600020905b815481529060010190602001808311610b6d57829003601f168201915b5050505050905090565b600080610b9f612393565b9050610bac81858561239b565b600191505092915050565b600660009054906101000a900473ffffffffffffffffffffffffffffffffffffffff1681565b6000600254905090565b600080610bf2612393565b9050610bff858285612566565b610c0a8585856125f2565b60019150509392505050565b600860009054906101000a900473ffffffffffffffffffffffffffffffffffffffff1681565b60006012905090565b600760009054906101000a900473ffffffffffffffffffffffffffffffffffffffff1681565b600080610c76612393565b9050610c97818585610c8885896119bc565b610c9291906135a6565b61239b565b600191505092915050565b6000600560009054906101000a900473ffffffffffffffffffffffffffffffffffffffff1673ffffffffffffffffffffffffffffffffffffffff166370a08231306040518263ffffffff1660e01b8152600401610cff9190613164565b60206040518083038186803b158015610d1757600080fd5b505afa158015610d2b573d6000803e3d6000fd5b505050506040513d601f19601f82011682018060405250810190610d4f9190612e21565b905090565b600a60009054906101000a900473ffffffffffffffffffffffffffffffffffffffff1681565b6000600860009054906101000a900473ffffffffffffffffffffffffffffffffffffffff1673ffffffffffffffffffffffffffffffffffffffff166370a08231306040518263ffffffff1660e01b8152600401610dd79190613164565b60206040518083038186803b158015610def57600080fd5b505afa158015610e03573d6000803e3d6000fd5b505050506040513d601f19601f82011682018060405250810190610e279190612e21565b905090565b600960009054906101000a900473ffffffffffffffffffffffffffffffffffffffff1681565b60008060008373ffffffffffffffffffffffffffffffffffffffff1673ffffffffffffffffffffffffffffffffffffffff168152602001908152602001600020549050919050565b6000610ea4610ca2565b821115610eb857610eb3610ca2565b610eba565b815b9050610ec63382612873565b600560009054906101000a900473ffffffffffffffffffffffffffffffffffffffff1673ffffffffffffffffffffffffffffffffffffffff1663a9059cbb33836040518363ffffffff1660e01b8152600401610f23929190613209565b602060405180830381600087803b158015610f3d57600080fd5b505af1158015610f51573d6000803e3d6000fd5b505050506040513d601f19601f82011682018060405250810190610f759190612dcf565b50600660009054906101000a900473ffffffffffffffffffffffffffffffffffffffff1673ffffffffffffffffffffffffffffffffffffffff1663a9059cbb33610fbd610bdd565b84610fc66117de565b610fd0919061362d565b610fda91906135fc565b6040518363ffffffff1660e01b8152600401610ff7929190613209565b602060405180830381600087803b15801561101157600080fd5b505af1158015611025573d6000803e3d6000fd5b505050506040513d601f19601f820116820180604052508101906110499190612dcf565b505050565b606481600a61105d919061362d565b61106791906135fc565b6110d2600860009054906101000a900473ffffffffffffffffffffffffffffffffffffffff16600b60003373ffffffffffffffffffffffffffffffffffffffff1673ffffffffffffffffffffffffffffffffffffffff16815260200190815260200160002054611e3f565b1015611113576040517f08c379a000000000000000000000000000000000000000000000000000000000815260040161110a90613380565b60405180910390fd5b611134606482600a611125919061362d565b61112f91906135fc565b611a69565b600b60003373ffffffffffffffffffffffffffffffffffffffff1673ffffffffffffffffffffffffffffffffffffffff16815260200190815260200160002060008282546111829190613687565b9250508190555080611192610ca2565b10156111d3576040517f08c379a00000000000000000000000000000000000000000000000000000000081526004016111ca90613300565b60405180910390fd5b6000600267ffffffffffffffff811115611216577f4e487b7100000000000000000000000000000000000000000000000000000000600052604160045260246000fd5b6040519080825280602002602001820160405280156112445781602001602082028036833780820191505090505b509050600560009054906101000a900473ffffffffffffffffffffffffffffffffffffffff16816000815181106112a4577f4e487b7100000000000000000000000000000000000000000000000000000000600052603260045260246000fd5b602002602001019073ffffffffffffffffffffffffffffffffffffffff16908173ffffffffffffffffffffffffffffffffffffffff1681525050600760009054906101000a900473ffffffffffffffffffffffffffffffffffffffff168160018151811061133b577f4e487b7100000000000000000000000000000000000000000000000000000000600052603260045260246000fd5b602002602001019073ffffffffffffffffffffffffffffffffffffffff16908173ffffffffffffffffffffffffffffffffffffffff16815250506000600960009054906101000a900473ffffffffffffffffffffffffffffffffffffffff1673ffffffffffffffffffffffffffffffffffffffff166338ed1739846113c08686611d0d565b8530601e426113cf91906135a6565b6040518663ffffffff1660e01b81526004016113ef95949392919061348b565b600060405180830381600087803b15801561140957600080fd5b505af115801561141d573d6000803e3d6000fd5b505050506040513d6000823e3d601f19601f820116820180604052508101906114469190612d8e565b9050600a60009054906101000a900473ffffffffffffffffffffffffffffffffffffffff1673ffffffffffffffffffffffffffffffffffffffff16634985503d303360648761149361199b565b61149d919061362d565b6114a791906135fc565b856001815181106114e1577f4e487b7100000000000000000000000000000000000000000000000000000000600052603260045260246000fd5b6020026020010151886040518663ffffffff1660e01b815260040161150a9594939291906131b6565b600060405180830381600087803b15801561152457600080fd5b505af1158015611538573d6000803e3d6000fd5b50505050505050565b606060048054611550906137af565b80601f016020809104026020016040519081016040528092919081815260200182805461157c906137af565b80156115c95780601f1061159e576101008083540402835291602001916115c9565b820191906000526020600020905b8154815290600101906020018083116115ac57829003601f168201915b5050505050905090565b6000806115de612393565b905060006115ec82866119bc565b905083811015611631576040517f08c379a000000000000000000000000000000000000000000000000000000000815260040161162890613400565b60405180910390fd5b61163e828686840361239b565b60019250505092915050565b600080611655612393565b90506116628185856125f2565b600191505092915050565b600560009054906101000a900473ffffffffffffffffffffffffffffffffffffffff1673ffffffffffffffffffffffffffffffffffffffff166323b872dd3330846040518463ffffffff1660e01b81526004016116cc9392919061317f565b602060405180830381600087803b1580156116e657600080fd5b505af11580156116fa573d6000803e3d6000fd5b505050506040513d601f19601f8201168201806040525081019061171e9190612dcf565b506117293382612a4a565b50565b6000600760009054906101000a900473ffffffffffffffffffffffffffffffffffffffff1673ffffffffffffffffffffffffffffffffffffffff166370a08231306040518263ffffffff1660e01b81526004016117899190613164565b60206040518083038186803b1580156117a157600080fd5b505afa1580156117b5573d6000803e3d6000fd5b505050506040513d601f19601f820116820180604052508101906117d99190612e21565b905090565b6000600660009054906101000a900473ffffffffffffffffffffffffffffffffffffffff1673ffffffffffffffffffffffffffffffffffffffff166370a08231306040518263ffffffff1660e01b815260040161183b9190613164565b60206040518083038186803b15801561185357600080fd5b505afa158015611867573d6000803e3d6000fd5b505050506040513d601f19601f8201168201806040525081019061188b9190612e21565b905090565b600860009054906101000a900473ffffffffffffffffffffffffffffffffffffffff1673ffffffffffffffffffffffffffffffffffffffff166323b872dd3330846040518463ffffffff1660e01b81526004016118ef9392919061317f565b602060405180830381600087803b15801561190957600080fd5b505af115801561191d573d6000803e3d6000fd5b505050506040513d601f19601f820116820180604052508101906119419190612dcf565b5080600b60003373ffffffffffffffffffffffffffffffffffffffff1673ffffffffffffffffffffffffffffffffffffffff168152602001908152602001600020600082825461199191906135a6565b9250508190555050565b6000600c905090565b600b6020528060005260406000206000915090505481565b6000600160008473ffffffffffffffffffffffffffffffffffffffff1673ffffffffffffffffffffffffffffffffffffffff16815260200190815260200160002060008373ffffffffffffffffffffffffffffffffffffffff1673ffffffffffffffffffffffffffffffffffffffff16815260200190815260200160002054905092915050565b600560009054906101000a900473ffffffffffffffffffffffffffffffffffffffff1681565b600080600267ffffffffffffffff811115611aad577f4e487b7100000000000000000000000000000000000000000000000000000000600052604160045260246000fd5b604051908082528060200260200182016040528015611adb5781602001602082028036833780820191505090505b509050600560009054906101000a900473ffffffffffffffffffffffffffffffffffffffff1681600081518110611b3b577f4e487b7100000000000000000000000000000000000000000000000000000000600052603260045260246000fd5b602002602001019073ffffffffffffffffffffffffffffffffffffffff16908173ffffffffffffffffffffffffffffffffffffffff1681525050600860009054906101000a900473ffffffffffffffffffffffffffffffffffffffff1681600181518110611bd2577f4e487b7100000000000000000000000000000000000000000000000000000000600052603260045260246000fd5b602002602001019073ffffffffffffffffffffffffffffffffffffffff16908173ffffffffffffffffffffffffffffffffffffffff16815250506000600960009054906101000a900473ffffffffffffffffffffffffffffffffffffffff1673ffffffffffffffffffffffffffffffffffffffff1663d06ca61f85846040518363ffffffff1660e01b8152600401611c6b92919061345b565b60006040518083038186803b158015611c8357600080fd5b505afa158015611c97573d6000803e3d6000fd5b505050506040513d6000823e3d601f19601f82011682018060405250810190611cc09190612d8e565b905080600181518110611cfc577f4e487b7100000000000000000000000000000000000000000000000000000000600052603260045260246000fd5b602002602001015192505050919050565b600080600960009054906101000a900473ffffffffffffffffffffffffffffffffffffffff1673ffffffffffffffffffffffffffffffffffffffff1663d06ca61f85856040518363ffffffff1660e01b8152600401611d6d92919061345b565b60006040518083038186803b158015611d8557600080fd5b505afa158015611d99573d6000803e3d6000fd5b505050506040513d6000823e3d601f19601f82011682018060405250810190611dc29190612d8e565b60018451611dd09190613687565b81518110611e07577f4e487b7100000000000000000000000000000000000000000000000000000000600052603260045260246000fd5b60200260200101519050606460056064611e219190613687565b82611e2c919061362d565b611e3691906135fc565b91505092915050565b600080600267ffffffffffffffff811115611e83577f4e487b7100000000000000000000000000000000000000000000000000000000600052604160045260246000fd5b604051908082528060200260200182016040528015611eb15781602001602082028036833780820191505090505b5090508381600081518110611eef577f4e487b7100000000000000000000000000000000000000000000000000000000600052603260045260246000fd5b602002602001019073ffffffffffffffffffffffffffffffffffffffff16908173ffffffffffffffffffffffffffffffffffffffff1681525050600560009054906101000a900473ffffffffffffffffffffffffffffffffffffffff1681600181518110611f86577f4e487b7100000000000000000000000000000000000000000000000000000000600052603260045260246000fd5b602002602001019073ffffffffffffffffffffffffffffffffffffffff16908173ffffffffffffffffffffffffffffffffffffffff16815250506000600960009054906101000a900473ffffffffffffffffffffffffffffffffffffffff1673ffffffffffffffffffffffffffffffffffffffff1663d06ca61f85846040518363ffffffff1660e01b815260040161201f92919061345b565b60006040518083038186803b15801561203757600080fd5b505afa15801561204b573d6000803e3d6000fd5b505050506040513d6000823e3d601f19601f820116820180604052508101906120749190612d8e565b9050806001815181106120b0577f4e487b7100000000000000000000000000000000000000000000000000000000600052603260045260246000fd5b60200260200101519250505092915050565b80600b60008473ffffffffffffffffffffffffffffffffffffffff1673ffffffffffffffffffffffffffffffffffffffff16815260200190815260200160002060008282546121119190613687565b925050819055506000600267ffffffffffffffff81111561215b577f4e487b7100000000000000000000000000000000000000000000000000000000600052604160045260246000fd5b6040519080825280602002602001820160405280156121895781602001602082028036833780820191505090505b509050600860009054906101000a900473ffffffffffffffffffffffffffffffffffffffff16816000815181106121e9577f4e487b7100000000000000000000000000000000000000000000000000000000600052603260045260246000fd5b602002602001019073ffffffffffffffffffffffffffffffffffffffff16908173ffffffffffffffffffffffffffffffffffffffff1681525050600560009054906101000a900473ffffffffffffffffffffffffffffffffffffffff1681600181518110612280577f4e487b7100000000000000000000000000000000000000000000000000000000600052603260045260246000fd5b602002602001019073ffffffffffffffffffffffffffffffffffffffff16908173ffffffffffffffffffffffffffffffffffffffff16815250506000600960009054906101000a900473ffffffffffffffffffffffffffffffffffffffff1673ffffffffffffffffffffffffffffffffffffffff166338ed1739846123058686611d0d565b8530601e4261231491906135a6565b6040518663ffffffff1660e01b815260040161233495949392919061348b565b600060405180830381600087803b15801561234e57600080fd5b505af1158015612362573d6000803e3d6000fd5b505050506040513d6000823e3d601f19601f8201168201806040525081019061238b9190612d8e565b905050505050565b600033905090565b600073ffffffffffffffffffffffffffffffffffffffff168373ffffffffffffffffffffffffffffffffffffffff16141561240b576040517f08c379a0000000000000000000000000000000000000000000000000000000008152600401612402906133e0565b60405180910390fd5b600073ffffffffffffffffffffffffffffffffffffffff168273ffffffffffffffffffffffffffffffffffffffff16141561247b576040517f08c379a000000000000000000000000000000000000000000000000000000000815260040161247290613320565b60405180910390fd5b80600160008573ffffffffffffffffffffffffffffffffffffffff1673ffffffffffffffffffffffffffffffffffffffff16815260200190815260200160002060008473ffffffffffffffffffffffffffffffffffffffff1673ffffffffffffffffffffffffffffffffffffffff168152602001908152602001600020819055508173ffffffffffffffffffffffffffffffffffffffff168373ffffffffffffffffffffffffffffffffffffffff167f8c5be1e5ebec7d5bd14f71427d1e84f3dd0314c0f7b2291e5b200ac8c7c3b925836040516125599190613440565b60405180910390a3505050565b600061257284846119bc565b90507fffffffffffffffffffffffffffffffffffffffffffffffffffffffffffffffff81146125ec57818110156125de576040517f08c379a00000000000000000000000000000000000000000000000000000000081526004016125d590613340565b60405180910390fd5b6125eb848484840361239b565b5b50505050565b600073ffffffffffffffffffffffffffffffffffffffff168373ffffffffffffffffffffffffffffffffffffffff161415612662576040517f08c379a0000000000000000000000000000000000000000000000000000000008152600401612659906133c0565b60405180910390fd5b600073ffffffffffffffffffffffffffffffffffffffff168273ffffffffffffffffffffffffffffffffffffffff1614156126d2576040517f08c379a00000000000000000000000000000000000000000000000000000000081526004016126c9906132c0565b60405180910390fd5b6126dd838383612baa565b60008060008573ffffffffffffffffffffffffffffffffffffffff1673ffffffffffffffffffffffffffffffffffffffff16815260200190815260200160002054905081811015612763576040517f08c379a000000000000000000000000000000000000000000000000000000000815260040161275a90613360565b60405180910390fd5b8181036000808673ffffffffffffffffffffffffffffffffffffffff1673ffffffffffffffffffffffffffffffffffffffff16815260200190815260200160002081905550816000808573ffffffffffffffffffffffffffffffffffffffff1673ffffffffffffffffffffffffffffffffffffffff16815260200190815260200160002060008282546127f691906135a6565b925050819055508273ffffffffffffffffffffffffffffffffffffffff168473ffffffffffffffffffffffffffffffffffffffff167fddf252ad1be2c89b69c2b068fc378daa952ba7f163c4a11628f55a4df523b3ef8460405161285a9190613440565b60405180910390a361286d848484612baf565b50505050565b600073ffffffffffffffffffffffffffffffffffffffff168273ffffffffffffffffffffffffffffffffffffffff1614156128e3576040517f08c379a00000000000000000000000000000000000000000000000000000000081526004016128da906133a0565b60405180910390fd5b6128ef82600083612baa565b60008060008473ffffffffffffffffffffffffffffffffffffffff1673ffffffffffffffffffffffffffffffffffffffff16815260200190815260200160002054905081811015612975576040517f08c379a000000000000000000000000000000000000000000000000000000000815260040161296c906132e0565b60405180910390fd5b8181036000808573ffffffffffffffffffffffffffffffffffffffff1673ffffffffffffffffffffffffffffffffffffffff1681526020019081526020016000208190555081600260008282546129cc9190613687565b92505081905550600073ffffffffffffffffffffffffffffffffffffffff168373ffffffffffffffffffffffffffffffffffffffff167fddf252ad1be2c89b69c2b068fc378daa952ba7f163c4a11628f55a4df523b3ef84604051612a319190613440565b60405180910390a3612a4583600084612baf565b505050565b600073ffffffffffffffffffffffffffffffffffffffff168273ffffffffffffffffffffffffffffffffffffffff161415612aba576040517f08c379a0000000000000000000000000000000000000000000000000000000008152600401612ab190613420565b60405180910390fd5b612ac660008383612baa565b8060026000828254612ad891906135a6565b92505081905550806000808473ffffffffffffffffffffffffffffffffffffffff1673ffffffffffffffffffffffffffffffffffffffff1681526020019081526020016000206000828254612b2d91906135a6565b925050819055508173ffffffffffffffffffffffffffffffffffffffff16600073ffffffffffffffffffffffffffffffffffffffff167fddf252ad1be2c89b69c2b068fc378daa952ba7f163c4a11628f55a4df523b3ef83604051612b929190613440565b60405180910390a3612ba660008383612baf565b5050565b505050565b505050565b6000612bc7612bc284613525565b613500565b90508083825260208201905082856020860282011115612be657600080fd5b60005b85811015612c165781612bfc8882612c89565b845260208401935060208301925050600181019050612be9565b5050509392505050565b600081359050612c2f81613c47565b92915050565b600082601f830112612c4657600080fd5b8151612c56848260208601612bb4565b91505092915050565b600081519050612c6e81613c5e565b92915050565b600081359050612c8381613c75565b92915050565b600081519050612c9881613c75565b92915050565b600060208284031215612cb057600080fd5b6000612cbe84828501612c20565b91505092915050565b60008060408385031215612cda57600080fd5b6000612ce885828601612c20565b9250506020612cf985828601612c20565b9150509250929050565b600080600060608486031215612d1857600080fd5b6000612d2686828701612c20565b9350506020612d3786828701612c20565b9250506040612d4886828701612c74565b9150509250925092565b60008060408385031215612d6557600080fd5b6000612d7385828601612c20565b9250506020612d8485828601612c74565b9150509250929050565b600060208284031215612da057600080fd5b600082015167ffffffffffffffff811115612dba57600080fd5b612dc684828501612c35565b91505092915050565b600060208284031215612de157600080fd5b6000612def84828501612c5f565b91505092915050565b600060208284031215612e0a57600080fd5b6000612e1884828501612c74565b91505092915050565b600060208284031215612e3357600080fd5b6000612e4184828501612c89565b91505092915050565b600080600060608486031215612e5f57600080fd5b6000612e6d86828701612c74565b9350506020612e7e86828701612c74565b9250506040612e8f86828701612c20565b9150509250925092565b6000612ea58383612eb1565b60208301905092915050565b612eba816136bb565b82525050565b612ec9816136bb565b82525050565b6000612eda82613561565b612ee48185613584565b9350612eef83613551565b8060005b83811015612f20578151612f078882612e99565b9750612f1283613577565b925050600181019050612ef3565b5085935050505092915050565b612f36816136cd565b82525050565b612f4581613710565b82525050565b612f5481613734565b82525050565b612f6381613758565b82525050565b6000612f748261356c565b612f7e8185613595565b9350612f8e81856020860161377c565b612f97816138ce565b840191505092915050565b6000612faf602383613595565b9150612fba826138df565b604082019050919050565b6000612fd2602283613595565b9150612fdd8261392e565b604082019050919050565b6000612ff5603183613595565b91506130008261397d565b604082019050919050565b6000613018602283613595565b9150613023826139cc565b604082019050919050565b600061303b601d83613595565b915061304682613a1b565b602082019050919050565b600061305e602683613595565b915061306982613a44565b604082019050919050565b6000613081602683613595565b915061308c82613a93565b604082019050919050565b60006130a4602183613595565b91506130af82613ae2565b604082019050919050565b60006130c7602583613595565b91506130d282613b31565b604082019050919050565b60006130ea602483613595565b91506130f582613b80565b604082019050919050565b600061310d602583613595565b915061311882613bcf565b604082019050919050565b6000613130601f83613595565b915061313b82613c1e565b602082019050919050565b61314f816136f9565b82525050565b61315e81613703565b82525050565b60006020820190506131796000830184612ec0565b92915050565b60006060820190506131946000830186612ec0565b6131a16020830185612ec0565b6131ae6040830184613146565b949350505050565b600060a0820190506131cb6000830188612ec0565b6131d86020830187612ec0565b6131e56040830186613146565b6131f26060830185613146565b6131ff6080830184613146565b9695505050505050565b600060408201905061321e6000830185612ec0565b61322b6020830184613146565b9392505050565b60006020820190506132476000830184612f2d565b92915050565b60006020820190506132626000830184612f3c565b92915050565b600060208201905061327d6000830184612f4b565b92915050565b60006020820190506132986000830184612f5a565b92915050565b600060208201905081810360008301526132b88184612f69565b905092915050565b600060208201905081810360008301526132d981612fa2565b9050919050565b600060208201905081810360008301526132f981612fc5565b9050919050565b6000602082019050818103600083015261331981612fe8565b9050919050565b600060208201905081810360008301526133398161300b565b9050919050565b600060208201905081810360008301526133598161302e565b9050919050565b6000602082019050818103600083015261337981613051565b9050919050565b6000602082019050818103600083015261339981613074565b9050919050565b600060208201905081810360008301526133b981613097565b9050919050565b600060208201905081810360008301526133d9816130ba565b9050919050565b600060208201905081810360008301526133f9816130dd565b9050919050565b6000602082019050818103600083015261341981613100565b9050919050565b6000602082019050818103600083015261343981613123565b9050919050565b60006020820190506134556000830184613146565b92915050565b60006040820190506134706000830185613146565b81810360208301526134828184612ecf565b90509392505050565b600060a0820190506134a06000830188613146565b6134ad6020830187613146565b81810360408301526134bf8186612ecf565b90506134ce6060830185612ec0565b6134db6080830184613146565b9695505050505050565b60006020820190506134fa6000830184613155565b92915050565b600061350a61351b565b905061351682826137e1565b919050565b6000604051905090565b600067ffffffffffffffff8211156135405761353f61389f565b5b602082029050602081019050919050565b6000819050602082019050919050565b600081519050919050565b600081519050919050565b6000602082019050919050565b600082825260208201905092915050565b600082825260208201905092915050565b60006135b1826136f9565b91506135bc836136f9565b9250827fffffffffffffffffffffffffffffffffffffffffffffffffffffffffffffffff038211156135f1576135f0613812565b5b828201905092915050565b6000613607826136f9565b9150613612836136f9565b92508261362257613621613841565b5b828204905092915050565b6000613638826136f9565b9150613643836136f9565b9250817fffffffffffffffffffffffffffffffffffffffffffffffffffffffffffffffff048311821515161561367c5761367b613812565b5b828202905092915050565b6000613692826136f9565b915061369d836136f9565b9250828210156136b0576136af613812565b5b828203905092915050565b60006136c6826136d9565b9050919050565b60008115159050919050565b600073ffffffffffffffffffffffffffffffffffffffff82169050919050565b6000819050919050565b600060ff82169050919050565b600061371b82613722565b9050919050565b600061372d826136d9565b9050919050565b600061373f82613746565b9050919050565b6000613751826136d9565b9050919050565b60006137638261376a565b9050919050565b6000613775826136d9565b9050919050565b60005b8381101561379a57808201518184015260208101905061377f565b838111156137a9576000848401525b50505050565b600060028204905060018216806137c757607f821691505b602082108114156137db576137da613870565b5b50919050565b6137ea826138ce565b810181811067ffffffffffffffff821117156138095761380861389f565b5b80604052505050565b7f4e487b7100000000000000000000000000000000000000000000000000000000600052601160045260246000fd5b7f4e487b7100000000000000000000000000000000000000000000000000000000600052601260045260246000fd5b7f4e487b7100000000000000000000000000000000000000000000000000000000600052602260045260246000fd5b7f4e487b7100000000000000000000000000000000000000000000000000000000600052604160045260246000fd5b6000601f19601f8301169050919050565b7f45524332303a207472616e7366657220746f20746865207a65726f206164647260008201527f6573730000000000000000000000000000000000000000000000000000000000602082015250565b7f45524332303a206275726e20616d6f756e7420657863656564732062616c616e60008201527f6365000000000000000000000000000000000000000000000000000000000000602082015250565b7f4e6f7420656e6f756768206361736820696e20636f6e747261637420746f207060008201527f7572636861736520746869732073776170000000000000000000000000000000602082015250565b7f45524332303a20617070726f766520746f20746865207a65726f20616464726560008201527f7373000000000000000000000000000000000000000000000000000000000000602082015250565b7f45524332303a20696e73756666696369656e7420616c6c6f77616e6365000000600082015250565b7f45524332303a207472616e7366657220616d6f756e742065786365656473206260008201527f616c616e63650000000000000000000000000000000000000000000000000000602082015250565b7f4e6f7420656e6f75676820636f6c6c61746572616c20746f206275792074686960008201527f7320737761700000000000000000000000000000000000000000000000000000602082015250565b7f45524332303a206275726e2066726f6d20746865207a65726f2061646472657360008201527f7300000000000000000000000000000000000000000000000000000000000000602082015250565b7f45524332303a207472616e736665722066726f6d20746865207a65726f20616460008201527f6472657373000000000000000000000000000000000000000000000000000000602082015250565b7f45524332303a20617070726f76652066726f6d20746865207a65726f2061646460008201527f7265737300000000000000000000000000000000000000000000000000000000602082015250565b7f45524332303a2064656372656173656420616c6c6f77616e63652062656c6f7760008201527f207a65726f000000000000000000000000000000000000000000000000000000602082015250565b7f45524332303a206d696e7420746f20746865207a65726f206164647265737300600082015250565b613c50816136bb565b8114613c5b57600080fd5b50565b613c67816136cd565b8114613c7257600080fd5b50565b613c7e816136f9565b8114613c8957600080fd5b5056fea2646970667358221220ca625a79bc7d6f938de550dafabfef47daf15817552412c6a2b4695de56685e564736f6c63430008040033",
  "devdoc": {
    "kind": "dev",
    "methods": {
      "allowance(address,address)": {
        "details": "See {IERC20-allowance}."
      },
      "approve(address,uint256)": {
        "details": "See {IERC20-approve}. NOTE: If `amount` is the maximum `uint256`, the allowance is not updated on `transferFrom`. This is semantically equivalent to an infinite approval. Requirements: - `spender` cannot be the zero address."
      },
      "balanceOf(address)": {
        "details": "See {IERC20-balanceOf}."
      },
      "decimals()": {
        "details": "Returns the number of decimals used to get its user representation. For example, if `decimals` equals `2`, a balance of `505` tokens should be displayed to a user as `5.05` (`505 / 10 ** 2`). Tokens usually opt for a value of 18, imitating the relationship between Ether and Wei. This is the value {ERC20} uses, unless this function is overridden; NOTE: This information is only used for _display_ purposes: it in no way affects any of the arithmetic of the contract, including {IERC20-balanceOf} and {IERC20-transfer}."
      },
      "decreaseAllowance(address,uint256)": {
        "details": "Atomically decreases the allowance granted to `spender` by the caller. This is an alternative to {approve} that can be used as a mitigation for problems described in {IERC20-approve}. Emits an {Approval} event indicating the updated allowance. Requirements: - `spender` cannot be the zero address. - `spender` must have allowance for the caller of at least `subtractedValue`."
      },
      "increaseAllowance(address,uint256)": {
        "details": "Atomically increases the allowance granted to `spender` by the caller. This is an alternative to {approve} that can be used as a mitigation for problems described in {IERC20-approve}. Emits an {Approval} event indicating the updated allowance. Requirements: - `spender` cannot be the zero address."
      },
      "name()": {
        "details": "Returns the name of the token."
      },
      "symbol()": {
        "details": "Returns the symbol of the token, usually a shorter version of the name."
      },
      "totalSupply()": {
        "details": "See {IERC20-totalSupply}."
      },
      "transfer(address,uint256)": {
        "details": "See {IERC20-transfer}. Requirements: - `to` cannot be the zero address. - the caller must have a balance of at least `amount`."
      },
      "transferFrom(address,address,uint256)": {
        "details": "See {IERC20-transferFrom}. Emits an {Approval} event indicating the updated allowance. This is not required by the EIP. See the note at the beginning of {ERC20}. NOTE: Does not update the allowance if the current allowance is the maximum `uint256`. Requirements: - `from` and `to` cannot be the zero address. - `from` must have a balance of at least `amount`. - the caller must have allowance for ``from``'s tokens of at least `amount`."
      }
    },
    "version": 1
  },
  "userdoc": {
    "kind": "user",
    "methods": {},
    "version": 1
  },
  "storageLayout": {
    "storage": [
      {
        "astId": 15,
        "contract": "contracts/Strategy.sol:Strategy",
        "label": "_balances",
        "offset": 0,
        "slot": "0",
        "type": "t_mapping(t_address,t_uint256)"
      },
      {
        "astId": 21,
        "contract": "contracts/Strategy.sol:Strategy",
        "label": "_allowances",
        "offset": 0,
        "slot": "1",
        "type": "t_mapping(t_address,t_mapping(t_address,t_uint256))"
      },
      {
        "astId": 23,
        "contract": "contracts/Strategy.sol:Strategy",
        "label": "_totalSupply",
        "offset": 0,
        "slot": "2",
        "type": "t_uint256"
      },
      {
        "astId": 25,
        "contract": "contracts/Strategy.sol:Strategy",
        "label": "_name",
        "offset": 0,
        "slot": "3",
        "type": "t_string_storage"
      },
      {
        "astId": 27,
        "contract": "contracts/Strategy.sol:Strategy",
        "label": "_symbol",
        "offset": 0,
        "slot": "4",
        "type": "t_string_storage"
      },
      {
        "astId": 3507,
        "contract": "contracts/Strategy.sol:Strategy",
        "label": "stablecoin",
        "offset": 0,
        "slot": "5",
        "type": "t_contract(IERC20)663"
      },
      {
        "astId": 3510,
        "contract": "contracts/Strategy.sol:Strategy",
        "label": "streamCoin",
        "offset": 0,
        "slot": "6",
        "type": "t_contract(IERC20)663"
      },
      {
        "astId": 3513,
        "contract": "contracts/Strategy.sol:Strategy",
        "label": "asset",
        "offset": 0,
        "slot": "7",
        "type": "t_contract(IERC20)663"
      },
      {
        "astId": 3516,
        "contract": "contracts/Strategy.sol:Strategy",
        "label": "boardwalkToken",
        "offset": 0,
        "slot": "8",
        "type": "t_contract(IERC20)663"
      },
      {
        "astId": 3519,
        "contract": "contracts/Strategy.sol:Strategy",
        "label": "dex",
        "offset": 0,
        "slot": "9",
        "type": "t_contract(IUniswapV2Router02)5056"
      },
      {
        "astId": 3522,
        "contract": "contracts/Strategy.sol:Strategy",
        "label": "swaps",
        "offset": 0,
        "slot": "10",
        "type": "t_contract(ISwaps)3490"
      },
      {
        "astId": 3526,
        "contract": "contracts/Strategy.sol:Strategy",
        "label": "availableCollateral",
        "offset": 0,
        "slot": "11",
        "type": "t_mapping(t_address,t_uint256)"
      }
    ],
    "types": {
      "t_address": {
        "encoding": "inplace",
        "label": "address",
        "numberOfBytes": "20"
      },
      "t_contract(IERC20)663": {
        "encoding": "inplace",
        "label": "contract IERC20",
        "numberOfBytes": "20"
      },
      "t_contract(ISwaps)3490": {
        "encoding": "inplace",
        "label": "contract ISwaps",
        "numberOfBytes": "20"
      },
      "t_contract(IUniswapV2Router02)5056": {
        "encoding": "inplace",
        "label": "contract IUniswapV2Router02",
        "numberOfBytes": "20"
      },
      "t_mapping(t_address,t_mapping(t_address,t_uint256))": {
        "encoding": "mapping",
        "key": "t_address",
        "label": "mapping(address => mapping(address => uint256))",
        "numberOfBytes": "32",
        "value": "t_mapping(t_address,t_uint256)"
      },
      "t_mapping(t_address,t_uint256)": {
        "encoding": "mapping",
        "key": "t_address",
        "label": "mapping(address => uint256)",
        "numberOfBytes": "32",
        "value": "t_uint256"
      },
      "t_string_storage": {
        "encoding": "bytes",
        "label": "string",
        "numberOfBytes": "32"
      },
      "t_uint256": {
        "encoding": "inplace",
        "label": "uint256",
        "numberOfBytes": "32"
      }
    }
  }
}