{
  "address": "0xcd347d38e4f8D197c02773984b188f298acB32F2",
  "abi": [
    {
      "inputs": [],
      "stateMutability": "nonpayable",
      "type": "constructor"
    },
    {
      "anonymous": false,
      "inputs": [
        {
          "indexed": true,
          "internalType": "address",
          "name": "owner",
          "type": "address"
        },
        {
          "indexed": true,
          "internalType": "address",
          "name": "approved",
          "type": "address"
        },
        {
          "indexed": true,
          "internalType": "uint256",
          "name": "tokenId",
          "type": "uint256"
        }
      ],
      "name": "Approval",
      "type": "event"
    },
    {
      "anonymous": false,
      "inputs": [
        {
          "indexed": true,
          "internalType": "address",
          "name": "owner",
          "type": "address"
        },
        {
          "indexed": true,
          "internalType": "address",
          "name": "operator",
          "type": "address"
        },
        {
          "indexed": false,
          "internalType": "bool",
          "name": "approved",
          "type": "bool"
        }
      ],
      "name": "ApprovalForAll",
      "type": "event"
    },
    {
      "anonymous": false,
      "inputs": [
        {
          "indexed": true,
          "internalType": "address",
          "name": "from",
          "type": "address"
        },
        {
          "indexed": true,
          "internalType": "address",
          "name": "to",
          "type": "address"
        },
        {
          "indexed": true,
          "internalType": "uint256",
          "name": "tokenId",
          "type": "uint256"
        }
      ],
      "name": "Transfer",
      "type": "event"
    },
    {
      "inputs": [
        {
          "internalType": "uint256",
          "name": "",
          "type": "uint256"
        }
      ],
      "name": "AssetsByReceiverIndex",
      "outputs": [
        {
          "internalType": "uint256",
          "name": "flowRateForAssets",
          "type": "uint256"
        },
        {
          "internalType": "uint256",
          "name": "amountUnderlyingExposed",
          "type": "uint256"
        },
        {
          "internalType": "uint256",
          "name": "priceStable",
          "type": "uint256"
        },
        {
          "internalType": "address",
          "name": "strategy",
          "type": "address"
        }
      ],
      "stateMutability": "view",
      "type": "function"
    },
    {
      "inputs": [
        {
          "internalType": "uint256",
          "name": "_receiverIndex",
          "type": "uint256"
        }
      ],
      "name": "_endSwap",
      "outputs": [],
      "stateMutability": "nonpayable",
      "type": "function"
    },
    {
      "inputs": [
        {
          "internalType": "address",
          "name": "to",
          "type": "address"
        },
        {
          "internalType": "uint256",
          "name": "tokenId",
          "type": "uint256"
        }
      ],
      "name": "approve",
      "outputs": [],
      "stateMutability": "nonpayable",
      "type": "function"
    },
    {
      "inputs": [
        {
          "internalType": "address",
          "name": "owner",
          "type": "address"
        }
      ],
      "name": "balanceOf",
      "outputs": [
        {
          "internalType": "uint256",
          "name": "",
          "type": "uint256"
        }
      ],
      "stateMutability": "view",
      "type": "function"
    },
    {
      "inputs": [
        {
          "internalType": "uint256",
          "name": "tokenId",
          "type": "uint256"
        }
      ],
      "name": "getApproved",
      "outputs": [
        {
          "internalType": "address",
          "name": "",
          "type": "address"
        }
      ],
      "stateMutability": "view",
      "type": "function"
    },
    {
      "inputs": [],
      "name": "index",
      "outputs": [
        {
          "internalType": "uint256",
          "name": "",
          "type": "uint256"
        }
      ],
      "stateMutability": "view",
      "type": "function"
    },
    {
      "inputs": [
        {
          "internalType": "address",
          "name": "owner",
          "type": "address"
        },
        {
          "internalType": "address",
          "name": "operator",
          "type": "address"
        }
      ],
      "name": "isApprovedForAll",
      "outputs": [
        {
          "internalType": "bool",
          "name": "",
          "type": "bool"
        }
      ],
      "stateMutability": "view",
      "type": "function"
    },
    {
      "inputs": [],
      "name": "name",
      "outputs": [
        {
          "internalType": "string",
          "name": "",
          "type": "string"
        }
      ],
      "stateMutability": "view",
      "type": "function"
    },
    {
      "inputs": [
        {
          "internalType": "address",
          "name": "_receiver",
          "type": "address"
        },
        {
          "internalType": "address",
          "name": "_payer",
          "type": "address"
        },
        {
          "internalType": "uint256",
          "name": "_requiredFlowRate",
          "type": "uint256"
        },
        {
          "internalType": "uint256",
          "name": "_amountUnderlying",
          "type": "uint256"
        },
        {
          "internalType": "uint256",
          "name": "_amountStable",
          "type": "uint256"
        }
      ],
      "name": "newSwap",
      "outputs": [],
      "stateMutability": "nonpayable",
      "type": "function"
    },
    {
      "inputs": [
        {
          "internalType": "uint256",
          "name": "tokenId",
          "type": "uint256"
        }
      ],
      "name": "ownerOf",
      "outputs": [
        {
          "internalType": "address",
          "name": "",
          "type": "address"
        }
      ],
      "stateMutability": "view",
      "type": "function"
    },
    {
      "inputs": [
        {
          "internalType": "address",
          "name": "from",
          "type": "address"
        },
        {
          "internalType": "address",
          "name": "to",
          "type": "address"
        },
        {
          "internalType": "uint256",
          "name": "tokenId",
          "type": "uint256"
        }
      ],
      "name": "safeTransferFrom",
      "outputs": [],
      "stateMutability": "nonpayable",
      "type": "function"
    },
    {
      "inputs": [
        {
          "internalType": "address",
          "name": "from",
          "type": "address"
        },
        {
          "internalType": "address",
          "name": "to",
          "type": "address"
        },
        {
          "internalType": "uint256",
          "name": "tokenId",
          "type": "uint256"
        },
        {
          "internalType": "bytes",
          "name": "data",
          "type": "bytes"
        }
      ],
      "name": "safeTransferFrom",
      "outputs": [],
      "stateMutability": "nonpayable",
      "type": "function"
    },
    {
      "inputs": [
        {
          "internalType": "address",
          "name": "operator",
          "type": "address"
        },
        {
          "internalType": "bool",
          "name": "approved",
          "type": "bool"
        }
      ],
      "name": "setApprovalForAll",
      "outputs": [],
      "stateMutability": "nonpayable",
      "type": "function"
    },
    {
      "inputs": [
        {
          "internalType": "bytes4",
          "name": "interfaceId",
          "type": "bytes4"
        }
      ],
      "name": "supportsInterface",
      "outputs": [
        {
          "internalType": "bool",
          "name": "",
          "type": "bool"
        }
      ],
      "stateMutability": "view",
      "type": "function"
    },
    {
      "inputs": [],
      "name": "symbol",
      "outputs": [
        {
          "internalType": "string",
          "name": "",
          "type": "string"
        }
      ],
      "stateMutability": "view",
      "type": "function"
    },
    {
      "inputs": [
        {
          "internalType": "uint256",
          "name": "tokenId",
          "type": "uint256"
        }
      ],
      "name": "tokenURI",
      "outputs": [
        {
          "internalType": "string",
          "name": "",
          "type": "string"
        }
      ],
      "stateMutability": "view",
      "type": "function"
    },
    {
      "inputs": [
        {
          "internalType": "address",
          "name": "from",
          "type": "address"
        },
        {
          "internalType": "address",
          "name": "to",
          "type": "address"
        },
        {
          "internalType": "uint256",
          "name": "tokenId",
          "type": "uint256"
        }
      ],
      "name": "transferFrom",
      "outputs": [],
      "stateMutability": "nonpayable",
      "type": "function"
    }
  ],
  "transactionHash": "0xedd9c208a550cf44a8d94725c0d2a08bf3decb01e3ff0ee3b01467dc5d8c6923",
  "args": [],
  "numDeployments": 2,
  "solcInputHash": "e7d502e8048a020e0285085c81e8ce04",
  "bytecode": "0x60806040523480156200001157600080fd5b506040518060400160405280600d81526020017f426f61726477616c6b53776170000000000000000000000000000000000000008152506040518060400160405280600481526020017f73574c4b00000000000000000000000000000000000000000000000000000000815250816000908051906020019062000096929190620000b8565b508060019080519060200190620000af929190620000b8565b505050620001cd565b828054620000c69062000168565b90600052602060002090601f016020900481019282620000ea576000855562000136565b82601f106200010557805160ff191683800117855562000136565b8280016001018555821562000136579182015b828111156200013557825182559160200191906001019062000118565b5b50905062000145919062000149565b5090565b5b80821115620001645760008160009055506001016200014a565b5090565b600060028204905060018216806200018157607f821691505b602082108114156200019857620001976200019e565b5b50919050565b7f4e487b7100000000000000000000000000000000000000000000000000000000600052602260045260246000fd5b61298d80620001dd6000396000f3fe608060405234801561001057600080fd5b506004361061010b5760003560e01c80634985503d116100a257806395d89b411161007157806395d89b41146102cb578063a22cb465146102e9578063b88d4fde14610305578063c87b56dd14610321578063e985e9c5146103515761010b565b80634985503d146102335780636352211e1461024f57806370a082311461027f57806386ff1254146102af5761010b565b806323b872dd116100de57806323b872dd146101aa5780632986c0e5146101c657806341134a52146101e457806342842e0e146102175761010b565b806301ffc9a71461011057806306fdde0314610140578063081812fc1461015e578063095ea7b31461018e575b600080fd5b61012a60048036038101906101259190611cef565b610381565b6040516101379190612046565b60405180910390f35b610148610463565b6040516101559190612061565b60405180910390f35b61017860048036038101906101739190611d41565b6104f5565b6040516101859190611fdf565b60405180910390f35b6101a860048036038101906101a39190611cb3565b61053b565b005b6101c460048036038101906101bf9190611b36565b610653565b005b6101ce6106b3565b6040516101db91906121e3565b60405180910390f35b6101fe60048036038101906101f99190611d41565b6106b9565b60405161020e9493929190612235565b60405180910390f35b610231600480360381019061022c9190611b36565b610709565b005b61024d60048036038101906102489190611c00565b610729565b005b61026960048036038101906102649190611d41565b610824565b6040516102769190611fdf565b60405180910390f35b61029960048036038101906102949190611ad1565b6108d6565b6040516102a691906121e3565b60405180910390f35b6102c960048036038101906102c49190611d41565b61098e565b005b6102d3610ad4565b6040516102e09190612061565b60405180910390f35b61030360048036038101906102fe9190611c77565b610b66565b005b61031f600480360381019061031a9190611b85565b610b7c565b005b61033b60048036038101906103369190611d41565b610bde565b6040516103489190612061565b60405180910390f35b61036b60048036038101906103669190611afa565b610c46565b6040516103789190612046565b60405180910390f35b60007f80ac58cd000000000000000000000000000000000000000000000000000000007bffffffffffffffffffffffffffffffffffffffffffffffffffffffff1916827bffffffffffffffffffffffffffffffffffffffffffffffffffffffff1916148061044c57507f5b5e139f000000000000000000000000000000000000000000000000000000007bffffffffffffffffffffffffffffffffffffffffffffffffffffffff1916827bffffffffffffffffffffffffffffffffffffffffffffffffffffffff1916145b8061045c575061045b82610cda565b5b9050919050565b60606000805461047290612484565b80601f016020809104026020016040519081016040528092919081815260200182805461049e90612484565b80156104eb5780601f106104c0576101008083540402835291602001916104eb565b820191906000526020600020905b8154815290600101906020018083116104ce57829003601f168201915b5050505050905090565b600061050082610d44565b6004600083815260200190815260200160002060009054906101000a900473ffffffffffffffffffffffffffffffffffffffff169050919050565b600061054682610824565b90508073ffffffffffffffffffffffffffffffffffffffff168373ffffffffffffffffffffffffffffffffffffffff1614156105b7576040517f08c379a00000000000000000000000000000000000000000000000000000000081526004016105ae906121a3565b60405180910390fd5b8073ffffffffffffffffffffffffffffffffffffffff166105d6610d8f565b73ffffffffffffffffffffffffffffffffffffffff1614806106055750610604816105ff610d8f565b610c46565b5b610644576040517f08c379a000000000000000000000000000000000000000000000000000000000815260040161063b90612143565b60405180910390fd5b61064e8383610d97565b505050565b61066461065e610d8f565b82610e50565b6106a3576040517f08c379a000000000000000000000000000000000000000000000000000000000815260040161069a906121c3565b60405180910390fd5b6106ae838383610ee5565b505050565b60065481565b60076020528060005260406000206000915090508060000154908060010154908060020154908060030160009054906101000a900473ffffffffffffffffffffffffffffffffffffffff16905084565b61072483838360405180602001604052806000815250610b7c565b505050565b60405180608001604052808481526020018381526020018281526020013373ffffffffffffffffffffffffffffffffffffffff1681525060076000600654815260200190815260200160002060008201518160000155602082015181600101556040820151816002015560608201518160030160006101000a81548173ffffffffffffffffffffffffffffffffffffffff021916908373ffffffffffffffffffffffffffffffffffffffff1602179055509050506107fd85600660008154809291906107f4906124e7565b9190505561114c565b61081d8460066000815480929190610814906124e7565b9190505561114c565b5050505050565b6000806002600084815260200190815260200160002060009054906101000a900473ffffffffffffffffffffffffffffffffffffffff169050600073ffffffffffffffffffffffffffffffffffffffff168173ffffffffffffffffffffffffffffffffffffffff1614156108cd576040517f08c379a00000000000000000000000000000000000000000000000000000000081526004016108c490612183565b60405180910390fd5b80915050919050565b60008073ffffffffffffffffffffffffffffffffffffffff168273ffffffffffffffffffffffffffffffffffffffff161415610947576040517f08c379a000000000000000000000000000000000000000000000000000000000815260040161093e90612123565b60405180910390fd5b600360008373ffffffffffffffffffffffffffffffffffffffff1673ffffffffffffffffffffffffffffffffffffffff168152602001908152602001600020549050919050565b6000600760008381526020019081526020016000206040518060800160405290816000820154815260200160018201548152602001600282015481526020016003820160009054906101000a900473ffffffffffffffffffffffffffffffffffffffff1673ffffffffffffffffffffffffffffffffffffffff1673ffffffffffffffffffffffffffffffffffffffff16815250509050806060015173ffffffffffffffffffffffffffffffffffffffff1662353ceb82602001518360400151610a62600187610a5d9190612313565b610824565b6040518463ffffffff1660e01b8152600401610a80939291906121fe565b600060405180830381600087803b158015610a9a57600080fd5b505af1158015610aae573d6000803e3d6000fd5b50505050610abb82611326565b610ad0600183610acb9190612313565b611326565b5050565b606060018054610ae390612484565b80601f0160208091040260200160405190810160405280929190818152602001828054610b0f90612484565b8015610b5c5780601f10610b3157610100808354040283529160200191610b5c565b820191906000526020600020905b815481529060010190602001808311610b3f57829003601f168201915b5050505050905090565b610b78610b71610d8f565b8383611443565b5050565b610b8d610b87610d8f565b83610e50565b610bcc576040517f08c379a0000000000000000000000000000000000000000000000000000000008152600401610bc3906121c3565b60405180910390fd5b610bd8848484846115b0565b50505050565b6060610be982610d44565b6000610bf361160c565b90506000815111610c135760405180602001604052806000815250610c3e565b80610c1d84611623565b604051602001610c2e929190611fbb565b6040516020818303038152906040525b915050919050565b6000600560008473ffffffffffffffffffffffffffffffffffffffff1673ffffffffffffffffffffffffffffffffffffffff16815260200190815260200160002060008373ffffffffffffffffffffffffffffffffffffffff1673ffffffffffffffffffffffffffffffffffffffff16815260200190815260200160002060009054906101000a900460ff16905092915050565b60007f01ffc9a7000000000000000000000000000000000000000000000000000000007bffffffffffffffffffffffffffffffffffffffffffffffffffffffff1916827bffffffffffffffffffffffffffffffffffffffffffffffffffffffff1916149050919050565b610d4d816117d0565b610d8c576040517f08c379a0000000000000000000000000000000000000000000000000000000008152600401610d8390612183565b60405180910390fd5b50565b600033905090565b816004600083815260200190815260200160002060006101000a81548173ffffffffffffffffffffffffffffffffffffffff021916908373ffffffffffffffffffffffffffffffffffffffff160217905550808273ffffffffffffffffffffffffffffffffffffffff16610e0a83610824565b73ffffffffffffffffffffffffffffffffffffffff167f8c5be1e5ebec7d5bd14f71427d1e84f3dd0314c0f7b2291e5b200ac8c7c3b92560405160405180910390a45050565b600080610e5c83610824565b90508073ffffffffffffffffffffffffffffffffffffffff168473ffffffffffffffffffffffffffffffffffffffff161480610e9e5750610e9d8185610c46565b5b80610edc57508373ffffffffffffffffffffffffffffffffffffffff16610ec4846104f5565b73ffffffffffffffffffffffffffffffffffffffff16145b91505092915050565b8273ffffffffffffffffffffffffffffffffffffffff16610f0582610824565b73ffffffffffffffffffffffffffffffffffffffff1614610f5b576040517f08c379a0000000000000000000000000000000000000000000000000000000008152600401610f52906120a3565b60405180910390fd5b600073ffffffffffffffffffffffffffffffffffffffff168273ffffffffffffffffffffffffffffffffffffffff161415610fcb576040517f08c379a0000000000000000000000000000000000000000000000000000000008152600401610fc2906120e3565b60405180910390fd5b610fd683838361183c565b610fe1600082610d97565b6001600360008573ffffffffffffffffffffffffffffffffffffffff1673ffffffffffffffffffffffffffffffffffffffff1681526020019081526020016000206000828254611031919061239a565b925050819055506001600360008473ffffffffffffffffffffffffffffffffffffffff1673ffffffffffffffffffffffffffffffffffffffff16815260200190815260200160002060008282546110889190612313565b92505081905550816002600083815260200190815260200160002060006101000a81548173ffffffffffffffffffffffffffffffffffffffff021916908373ffffffffffffffffffffffffffffffffffffffff160217905550808273ffffffffffffffffffffffffffffffffffffffff168473ffffffffffffffffffffffffffffffffffffffff167fddf252ad1be2c89b69c2b068fc378daa952ba7f163c4a11628f55a4df523b3ef60405160405180910390a4611147838383611841565b505050565b600073ffffffffffffffffffffffffffffffffffffffff168273ffffffffffffffffffffffffffffffffffffffff1614156111bc576040517f08c379a00000000000000000000000000000000000000000000000000000000081526004016111b390612163565b60405180910390fd5b6111c5816117d0565b15611205576040517f08c379a00000000000000000000000000000000000000000000000000000000081526004016111fc906120c3565b60405180910390fd5b6112116000838361183c565b6001600360008473ffffffffffffffffffffffffffffffffffffffff1673ffffffffffffffffffffffffffffffffffffffff16815260200190815260200160002060008282546112619190612313565b92505081905550816002600083815260200190815260200160002060006101000a81548173ffffffffffffffffffffffffffffffffffffffff021916908373ffffffffffffffffffffffffffffffffffffffff160217905550808273ffffffffffffffffffffffffffffffffffffffff16600073ffffffffffffffffffffffffffffffffffffffff167fddf252ad1be2c89b69c2b068fc378daa952ba7f163c4a11628f55a4df523b3ef60405160405180910390a461132260008383611841565b5050565b600061133182610824565b905061133f8160008461183c565b61134a600083610d97565b6001600360008373ffffffffffffffffffffffffffffffffffffffff1673ffffffffffffffffffffffffffffffffffffffff168152602001908152602001600020600082825461139a919061239a565b925050819055506002600083815260200190815260200160002060006101000a81549073ffffffffffffffffffffffffffffffffffffffff021916905581600073ffffffffffffffffffffffffffffffffffffffff168273ffffffffffffffffffffffffffffffffffffffff167fddf252ad1be2c89b69c2b068fc378daa952ba7f163c4a11628f55a4df523b3ef60405160405180910390a461143f81600084611841565b5050565b8173ffffffffffffffffffffffffffffffffffffffff168373ffffffffffffffffffffffffffffffffffffffff1614156114b2576040517f08c379a00000000000000000000000000000000000000000000000000000000081526004016114a990612103565b60405180910390fd5b80600560008573ffffffffffffffffffffffffffffffffffffffff1673ffffffffffffffffffffffffffffffffffffffff16815260200190815260200160002060008473ffffffffffffffffffffffffffffffffffffffff1673ffffffffffffffffffffffffffffffffffffffff16815260200190815260200160002060006101000a81548160ff0219169083151502179055508173ffffffffffffffffffffffffffffffffffffffff168373ffffffffffffffffffffffffffffffffffffffff167f17307eab39ab6107e8899845ad3d59bd9653f200f220920489ca2b5937696c31836040516115a39190612046565b60405180910390a3505050565b6115bb848484610ee5565b6115c784848484611846565b611606576040517f08c379a00000000000000000000000000000000000000000000000000000000081526004016115fd90612083565b60405180910390fd5b50505050565b606060405180602001604052806000815250905090565b6060600082141561166b576040518060400160405280600181526020017f300000000000000000000000000000000000000000000000000000000000000081525090506117cb565b600082905060005b6000821461169d578080611686906124e7565b915050600a826116969190612369565b9150611673565b60008167ffffffffffffffff8111156116df577f4e487b7100000000000000000000000000000000000000000000000000000000600052604160045260246000fd5b6040519080825280601f01601f1916602001820160405280156117115781602001600182028036833780820191505090505b5090505b600085146117c45760018261172a919061239a565b9150600a856117399190612530565b60306117459190612313565b60f81b818381518110611781577f4e487b7100000000000000000000000000000000000000000000000000000000600052603260045260246000fd5b60200101907effffffffffffffffffffffffffffffffffffffffffffffffffffffffffffff1916908160001a905350600a856117bd9190612369565b9450611715565b8093505050505b919050565b60008073ffffffffffffffffffffffffffffffffffffffff166002600084815260200190815260200160002060009054906101000a900473ffffffffffffffffffffffffffffffffffffffff1673ffffffffffffffffffffffffffffffffffffffff1614159050919050565b505050565b505050565b60006118678473ffffffffffffffffffffffffffffffffffffffff166119dd565b156119d0578373ffffffffffffffffffffffffffffffffffffffff1663150b7a02611890610d8f565b8786866040518563ffffffff1660e01b81526004016118b29493929190611ffa565b602060405180830381600087803b1580156118cc57600080fd5b505af19250505080156118fd57506040513d601f19601f820116820180604052508101906118fa9190611d18565b60015b611980573d806000811461192d576040519150601f19603f3d011682016040523d82523d6000602084013e611932565b606091505b50600081511415611978576040517f08c379a000000000000000000000000000000000000000000000000000000000815260040161196f90612083565b60405180910390fd5b805181602001fd5b63150b7a0260e01b7bffffffffffffffffffffffffffffffffffffffffffffffffffffffff1916817bffffffffffffffffffffffffffffffffffffffffffffffffffffffff1916149150506119d5565b600190505b949350505050565b6000808273ffffffffffffffffffffffffffffffffffffffff163b119050919050565b6000611a13611a0e8461229f565b61227a565b905082815260208101848484011115611a2b57600080fd5b611a36848285612442565b509392505050565b600081359050611a4d816128fb565b92915050565b600081359050611a6281612912565b92915050565b600081359050611a7781612929565b92915050565b600081519050611a8c81612929565b92915050565b600082601f830112611aa357600080fd5b8135611ab3848260208601611a00565b91505092915050565b600081359050611acb81612940565b92915050565b600060208284031215611ae357600080fd5b6000611af184828501611a3e565b91505092915050565b60008060408385031215611b0d57600080fd5b6000611b1b85828601611a3e565b9250506020611b2c85828601611a3e565b9150509250929050565b600080600060608486031215611b4b57600080fd5b6000611b5986828701611a3e565b9350506020611b6a86828701611a3e565b9250506040611b7b86828701611abc565b9150509250925092565b60008060008060808587031215611b9b57600080fd5b6000611ba987828801611a3e565b9450506020611bba87828801611a3e565b9350506040611bcb87828801611abc565b925050606085013567ffffffffffffffff811115611be857600080fd5b611bf487828801611a92565b91505092959194509250565b600080600080600060a08688031215611c1857600080fd5b6000611c2688828901611a3e565b9550506020611c3788828901611a3e565b9450506040611c4888828901611abc565b9350506060611c5988828901611abc565b9250506080611c6a88828901611abc565b9150509295509295909350565b60008060408385031215611c8a57600080fd5b6000611c9885828601611a3e565b9250506020611ca985828601611a53565b9150509250929050565b60008060408385031215611cc657600080fd5b6000611cd485828601611a3e565b9250506020611ce585828601611abc565b9150509250929050565b600060208284031215611d0157600080fd5b6000611d0f84828501611a68565b91505092915050565b600060208284031215611d2a57600080fd5b6000611d3884828501611a7d565b91505092915050565b600060208284031215611d5357600080fd5b6000611d6184828501611abc565b91505092915050565b611d73816123ce565b82525050565b611d82816123e0565b82525050565b6000611d93826122d0565b611d9d81856122e6565b9350611dad818560208601612451565b611db68161261d565b840191505092915050565b6000611dcc826122db565b611dd681856122f7565b9350611de6818560208601612451565b611def8161261d565b840191505092915050565b6000611e05826122db565b611e0f8185612308565b9350611e1f818560208601612451565b80840191505092915050565b6000611e386032836122f7565b9150611e438261262e565b604082019050919050565b6000611e5b6025836122f7565b9150611e668261267d565b604082019050919050565b6000611e7e601c836122f7565b9150611e89826126cc565b602082019050919050565b6000611ea16024836122f7565b9150611eac826126f5565b604082019050919050565b6000611ec46019836122f7565b9150611ecf82612744565b602082019050919050565b6000611ee76029836122f7565b9150611ef28261276d565b604082019050919050565b6000611f0a603e836122f7565b9150611f15826127bc565b604082019050919050565b6000611f2d6020836122f7565b9150611f388261280b565b602082019050919050565b6000611f506018836122f7565b9150611f5b82612834565b602082019050919050565b6000611f736021836122f7565b9150611f7e8261285d565b604082019050919050565b6000611f96602e836122f7565b9150611fa1826128ac565b604082019050919050565b611fb581612438565b82525050565b6000611fc78285611dfa565b9150611fd38284611dfa565b91508190509392505050565b6000602082019050611ff46000830184611d6a565b92915050565b600060808201905061200f6000830187611d6a565b61201c6020830186611d6a565b6120296040830185611fac565b818103606083015261203b8184611d88565b905095945050505050565b600060208201905061205b6000830184611d79565b92915050565b6000602082019050818103600083015261207b8184611dc1565b905092915050565b6000602082019050818103600083015261209c81611e2b565b9050919050565b600060208201905081810360008301526120bc81611e4e565b9050919050565b600060208201905081810360008301526120dc81611e71565b9050919050565b600060208201905081810360008301526120fc81611e94565b9050919050565b6000602082019050818103600083015261211c81611eb7565b9050919050565b6000602082019050818103600083015261213c81611eda565b9050919050565b6000602082019050818103600083015261215c81611efd565b9050919050565b6000602082019050818103600083015261217c81611f20565b9050919050565b6000602082019050818103600083015261219c81611f43565b9050919050565b600060208201905081810360008301526121bc81611f66565b9050919050565b600060208201905081810360008301526121dc81611f89565b9050919050565b60006020820190506121f86000830184611fac565b92915050565b60006060820190506122136000830186611fac565b6122206020830185611fac565b61222d6040830184611d6a565b949350505050565b600060808201905061224a6000830187611fac565b6122576020830186611fac565b6122646040830185611fac565b6122716060830184611d6a565b95945050505050565b6000612284612295565b905061229082826124b6565b919050565b6000604051905090565b600067ffffffffffffffff8211156122ba576122b96125ee565b5b6122c38261261d565b9050602081019050919050565b600081519050919050565b600081519050919050565b600082825260208201905092915050565b600082825260208201905092915050565b600081905092915050565b600061231e82612438565b915061232983612438565b9250827fffffffffffffffffffffffffffffffffffffffffffffffffffffffffffffffff0382111561235e5761235d612561565b5b828201905092915050565b600061237482612438565b915061237f83612438565b92508261238f5761238e612590565b5b828204905092915050565b60006123a582612438565b91506123b083612438565b9250828210156123c3576123c2612561565b5b828203905092915050565b60006123d982612418565b9050919050565b60008115159050919050565b60007fffffffff0000000000000000000000000000000000000000000000000000000082169050919050565b600073ffffffffffffffffffffffffffffffffffffffff82169050919050565b6000819050919050565b82818337600083830152505050565b60005b8381101561246f578082015181840152602081019050612454565b8381111561247e576000848401525b50505050565b6000600282049050600182168061249c57607f821691505b602082108114156124b0576124af6125bf565b5b50919050565b6124bf8261261d565b810181811067ffffffffffffffff821117156124de576124dd6125ee565b5b80604052505050565b60006124f282612438565b91507fffffffffffffffffffffffffffffffffffffffffffffffffffffffffffffffff82141561252557612524612561565b5b600182019050919050565b600061253b82612438565b915061254683612438565b92508261255657612555612590565b5b828206905092915050565b7f4e487b7100000000000000000000000000000000000000000000000000000000600052601160045260246000fd5b7f4e487b7100000000000000000000000000000000000000000000000000000000600052601260045260246000fd5b7f4e487b7100000000000000000000000000000000000000000000000000000000600052602260045260246000fd5b7f4e487b7100000000000000000000000000000000000000000000000000000000600052604160045260246000fd5b6000601f19601f8301169050919050565b7f4552433732313a207472616e7366657220746f206e6f6e20455243373231526560008201527f63656976657220696d706c656d656e7465720000000000000000000000000000602082015250565b7f4552433732313a207472616e736665722066726f6d20696e636f72726563742060008201527f6f776e6572000000000000000000000000000000000000000000000000000000602082015250565b7f4552433732313a20746f6b656e20616c7265616479206d696e74656400000000600082015250565b7f4552433732313a207472616e7366657220746f20746865207a65726f2061646460008201527f7265737300000000000000000000000000000000000000000000000000000000602082015250565b7f4552433732313a20617070726f766520746f2063616c6c657200000000000000600082015250565b7f4552433732313a2061646472657373207a65726f206973206e6f74206120766160008201527f6c6964206f776e65720000000000000000000000000000000000000000000000602082015250565b7f4552433732313a20617070726f76652063616c6c6572206973206e6f7420746f60008201527f6b656e206f776e6572206e6f7220617070726f76656420666f7220616c6c0000602082015250565b7f4552433732313a206d696e7420746f20746865207a65726f2061646472657373600082015250565b7f4552433732313a20696e76616c696420746f6b656e2049440000000000000000600082015250565b7f4552433732313a20617070726f76616c20746f2063757272656e74206f776e6560008201527f7200000000000000000000000000000000000000000000000000000000000000602082015250565b7f4552433732313a2063616c6c6572206973206e6f7420746f6b656e206f776e6560008201527f72206e6f7220617070726f766564000000000000000000000000000000000000602082015250565b612904816123ce565b811461290f57600080fd5b50565b61291b816123e0565b811461292657600080fd5b50565b612932816123ec565b811461293d57600080fd5b50565b61294981612438565b811461295457600080fd5b5056fea2646970667358221220a62b0ad5eb3abb4e2fd41e7422bbbfe480bef622d8b9584ee8dfe88020411d8064736f6c63430008040033",
  "devdoc": {
    "kind": "dev",
    "methods": {
      "approve(address,uint256)": {
        "details": "See {IERC721-approve}."
      },
      "balanceOf(address)": {
        "details": "See {IERC721-balanceOf}."
      },
      "getApproved(uint256)": {
        "details": "See {IERC721-getApproved}."
      },
      "isApprovedForAll(address,address)": {
        "details": "See {IERC721-isApprovedForAll}."
      },
      "name()": {
        "details": "See {IERC721Metadata-name}."
      },
      "ownerOf(uint256)": {
        "details": "See {IERC721-ownerOf}."
      },
      "safeTransferFrom(address,address,uint256)": {
        "details": "See {IERC721-safeTransferFrom}."
      },
      "safeTransferFrom(address,address,uint256,bytes)": {
        "details": "See {IERC721-safeTransferFrom}."
      },
      "setApprovalForAll(address,bool)": {
        "details": "See {IERC721-setApprovalForAll}."
      },
      "supportsInterface(bytes4)": {
        "details": "See {IERC165-supportsInterface}."
      },
      "symbol()": {
        "details": "See {IERC721Metadata-symbol}."
      },
      "tokenURI(uint256)": {
        "details": "See {IERC721Metadata-tokenURI}."
      },
      "transferFrom(address,address,uint256)": {
        "details": "See {IERC721-transferFrom}."
      }
    },
    "version": 1
  },
  "userdoc": {
    "kind": "user",
    "methods": {},
    "version": 1
  },
  "storageLayout": {
    "storage": [
      {
        "astId": 714,
        "contract": "contracts/Swaps.sol:Swaps",
        "label": "_name",
        "offset": 0,
        "slot": "0",
        "type": "t_string_storage"
      },
      {
        "astId": 716,
        "contract": "contracts/Swaps.sol:Swaps",
        "label": "_symbol",
        "offset": 0,
        "slot": "1",
        "type": "t_string_storage"
      },
      {
        "astId": 720,
        "contract": "contracts/Swaps.sol:Swaps",
        "label": "_owners",
        "offset": 0,
        "slot": "2",
        "type": "t_mapping(t_uint256,t_address)"
      },
      {
        "astId": 724,
        "contract": "contracts/Swaps.sol:Swaps",
        "label": "_balances",
        "offset": 0,
        "slot": "3",
        "type": "t_mapping(t_address,t_uint256)"
      },
      {
        "astId": 728,
        "contract": "contracts/Swaps.sol:Swaps",
        "label": "_tokenApprovals",
        "offset": 0,
        "slot": "4",
        "type": "t_mapping(t_uint256,t_address)"
      },
      {
        "astId": 734,
        "contract": "contracts/Swaps.sol:Swaps",
        "label": "_operatorApprovals",
        "offset": 0,
        "slot": "5",
        "type": "t_mapping(t_address,t_mapping(t_address,t_bool))"
      },
      {
        "astId": 4281,
        "contract": "contracts/Swaps.sol:Swaps",
        "label": "index",
        "offset": 0,
        "slot": "6",
        "type": "t_uint256"
      },
      {
        "astId": 4303,
        "contract": "contracts/Swaps.sol:Swaps",
        "label": "AssetsByReceiverIndex",
        "offset": 0,
        "slot": "7",
        "type": "t_mapping(t_uint256,t_struct(Asset)4298_storage)"
      }
    ],
    "types": {
      "t_address": {
        "encoding": "inplace",
        "label": "address",
        "numberOfBytes": "20"
      },
      "t_bool": {
        "encoding": "inplace",
        "label": "bool",
        "numberOfBytes": "1"
      },
      "t_mapping(t_address,t_bool)": {
        "encoding": "mapping",
        "key": "t_address",
        "label": "mapping(address => bool)",
        "numberOfBytes": "32",
        "value": "t_bool"
      },
      "t_mapping(t_address,t_mapping(t_address,t_bool))": {
        "encoding": "mapping",
        "key": "t_address",
        "label": "mapping(address => mapping(address => bool))",
        "numberOfBytes": "32",
        "value": "t_mapping(t_address,t_bool)"
      },
      "t_mapping(t_address,t_uint256)": {
        "encoding": "mapping",
        "key": "t_address",
        "label": "mapping(address => uint256)",
        "numberOfBytes": "32",
        "value": "t_uint256"
      },
      "t_mapping(t_uint256,t_address)": {
        "encoding": "mapping",
        "key": "t_uint256",
        "label": "mapping(uint256 => address)",
        "numberOfBytes": "32",
        "value": "t_address"
      },
      "t_mapping(t_uint256,t_struct(Asset)4298_storage)": {
        "encoding": "mapping",
        "key": "t_uint256",
        "label": "mapping(uint256 => struct Swaps.Asset)",
        "numberOfBytes": "32",
        "value": "t_struct(Asset)4298_storage"
      },
      "t_string_storage": {
        "encoding": "bytes",
        "label": "string",
        "numberOfBytes": "32"
      },
      "t_struct(Asset)4298_storage": {
        "encoding": "inplace",
        "label": "struct Swaps.Asset",
        "members": [
          {
            "astId": 4291,
            "contract": "contracts/Swaps.sol:Swaps",
            "label": "flowRateForAssets",
            "offset": 0,
            "slot": "0",
            "type": "t_uint256"
          },
          {
            "astId": 4293,
            "contract": "contracts/Swaps.sol:Swaps",
            "label": "amountUnderlyingExposed",
            "offset": 0,
            "slot": "1",
            "type": "t_uint256"
          },
          {
            "astId": 4295,
            "contract": "contracts/Swaps.sol:Swaps",
            "label": "priceStable",
            "offset": 0,
            "slot": "2",
            "type": "t_uint256"
          },
          {
            "astId": 4297,
            "contract": "contracts/Swaps.sol:Swaps",
            "label": "strategy",
            "offset": 0,
            "slot": "3",
            "type": "t_address"
          }
        ],
        "numberOfBytes": "128"
      },
      "t_uint256": {
        "encoding": "inplace",
        "label": "uint256",
        "numberOfBytes": "32"
      }
    }
  }
}